:020000040800F2
:1000000040060020C13C0008653B0008673B000833
:10001000693B00086B3B00086D3B000800000000D6
:100020000000000000000000000000006F3B00081E
:10003000713B000800000000733B0008753B00089E
:100040000D3D0008113D0008153D0008193D000850
:100050001D3D0008213D00088D3B0008293D00089A
:100060002D3D0008313D0008353D0008393D0008B0
:100070003D3D0008413D0008453D0008493D000860
:100080004D3D0008513D0008553D0008593D000810
:10009000FD3B0008613D0008653D0008693D000822
:1000A0006D3D0008713D0008753D0008793D000870
:1000B0007D3D0008813D0008853D0008893D000820
:1000C0008D3D0008913D0008953D0008993D0008D0
:1000D0009D3D0008A13D0008A53D0008A93D000880
:1000E000AD3D0008B13D0008013C0008B93D0008E5
:1000F000BD3D0008C13D0008C53D0008C93D0008E0
:10010000000000000000000000000000CD3D0008DD
:10011000D13D0008D53D0008D93D0008DD3D00086F
:10012000E13D0008E53D0008E93D0008ED3D00081F
:10013000F13D0008F53D000800000000000000004F
:10014000F93D0008FD3D0008013E000800000000E8
:10015000000000000000000000000000000000009F
:100160000000000000000000053E0008093E0008F5
:100170000D3E00080000000000000000000000002C
:1001800000000000113E000838B5DFF8104B2DEDDF
:10019000108B04F11C0000F0C5FD206A6421B0FB47
:1001A000F1F0401EB0F1807F0AD2DFF8F41A486007
:1001B000F022DFF8F00A0270002088600720086053
:1001C000002000F01BFF012000F018FF022000F0CB
:1001D00015FF032000F012FF042000F00FFF0520A0
:1001E00000F00CFF062000F009FF072000F006FFDA
:1001F0000121002000F03DFF00F060FB0020606660
:100200009FEDA7FADFEDA7EA9FEDA7EA9FEDA7BA5A
:10021000DFEDA7BAB3EE09CADFEDA6CA9FEDA6DAF5
:10022000DFEDA6DA9FEDA68B9FEDA79B9FEDA8AB18
:100230006FF0040500F033FB00F03AFB00F024FB04
:1002400000F033FB00F037FB00F026FB00F021FB51
:1002500000F028FB26E000F001FF00F018FB022070
:1002600000F0FCFE00F013FB042000F0F7FE00F0AD
:100270000EFB062000F0F2FE00F009FB072000F064
:10028000EDFE00F004FB052000F0E8FE00F0FFFAB0
:10029000032000F0E3FE00F0FAFA012000F0DEFE99
:1002A00000F0F5FA606E0028D5D00020A07000F0B4
:1002B000CCFE00F0FDFA00F0E7FA00F0F6FA00F0EC
:1002C000FAFA00F0E9FA00F0E4FA00F0EBFA00F0D4
:1002D0000FFB0DE00628A4BF072000F0ADFE94ED53
:1002E000160A00F0C3FAA84202DA002000F0A4FEC9
:1002F000606E01283CD100F0B3FA00F0A6FE00F0D9
:10030000D7FA00F0C1FA00F0D0FA00F0D4FA00F009
:10031000C3FA00F0BEFA00F0C5FA04F1580000F08C
:1003200007FB94ED160ABDEEC00A10EE100A40B2AB
:10033000010048BF4942217094ED170ABDEEC00A82
:1003400010EE101A49B20A0048BF52426270237878
:1003500062789A42BED3A942BCBF032000F06CFE73
:1003600094ED170A00F082FA0628C1DB0420BDE7ED
:100370000020A07000F099FA00F091FA00F098FACD
:1003800000F082FA00F097FA00F086FA00F081FAA5
:1003900000F088FA00F02EFB19E0042000F05EFE69
:1003A000032000F05BFE072000F058FE052000F05F
:1003B00055FE062000F052FE002000F04FFE012006
:1003C00000F04CFE022000F049FE00F060FA606E82
:1003D00002287FF42FAF00F043FA201D00F0B2FB9B
:1003E00004F1100000F03AFB002004EB8001DFED87
:1003F0009E0A91ED040A80EE200A401C81ED040A59
:100400000328F2DB94ED041AD4ED050A94ED060AF4
:1004100021EE011A00EEA01A00EE001A11EE100AE9
:1004200000F0BCFE00F02CFA00F026FAE06694ED35
:10043000050AD4ED1B0A80EE200AB1EE400A84EDD5
:100440001C0A00F007FA00F0EAF900F019FA00F0CF
:1004500013FA94ED040AD4ED1B0A606780EE200ABB
:1004600084ED1E0A00F0F6F900F0D9F900F008FA60
:1004700000F002FAE067D4ED1DFA1FEE900A00F0DA
:100480008DFE94ED1C1A00F0D0F925DDF1EE10FA86
:100490002EDD00F043FF00F0D7F900F0CFF931E096
:1004A00000004D43000020430000E64200008C4263
:1004B0000000AA43010020420000B4C30000B4437E
:1004C00000000000008076400000000000806640D0
:1004D000000000000000F03FF1EE10FA08DD00F02F
:1004E0001DFF00F0B1F900F0A9F953EC182B07E05B
:1004F00000F014FF00F0A8F900F0A0F953EC192B5C
:1005000000F014FF00F086FFD4ED1FFA00EE100A91
:1005100084ED200A1FEE900A00F040FE94ED1E1AB2
:1005200000F083F909DDF1EE10FA12DD00F0F6FEBD
:1005300000F08AF900F082F915E0F1EE10FA08DD1A
:1005400000F0ECFE00F080F900F078F953EC182B85
:1005500007E000F0E3FE00F077F900F06FF953ECEC
:10056000192B00F0E3FE00F055FFD4ED200AF4EE65
:100570006D0A00EE100AF1EE10FAA4BF70EE8D0ABB
:10058000C4ED200AB4EE6D0AF1EE10FAA8BF30EE09
:100590000D0A84ED210A94ED1F1AD4ED011A94ED91
:1005A0001E0A94ED032AD4ED1C2A61EE810A42EE64
:1005B000000A61EEA21A21EE800A94ED022AD4ED1F
:1005C0001D1AC4ED220A02EE210A62EE221A01EE81
:1005D000C10A84ED230A00F065FFDFEDC20A20EEB8
:1005E000200ADFEDC10A80EE200A84ED1A0A00F02D
:1005F00006F905D594ED1A0A30EE2D0A84ED1A0A93
:1006000094ED200AB4EE6C0AF1EE10FA42BF94EDBC
:10061000210AB4EE6C0AF1EE10FA7FF5BEAE00F0DE
:10062000E7F802D500F0EBF809DA00F0DAF81DDBA4
:1006300094ED1A0ADFEDAD0A00F0ECF816D50720AC
:1006400000F0FAFC00F02BF900F032F900F01CF990
:1006500000F02BF900F020F9062000F0F6FC022053
:1006600000F0F3FCB3E600BF0000C84200F0B2F8AF
:1006700015D500F0BDF812DB062000F0DDFC00F01F
:1006800017F900F018F900F00AF9052000F0DDFC78
:1006900000F008F9012000F0D8FC0420E0E700F0A9
:1006A00092F811D500F096F80EDB042000F0C4FC9F
:1006B00000F0F5F800F0F9F800F0EBF800F0FBF8C6
:1006C00000F0EAF80320C8E700F076F813D500F050
:1006D0007AF810DB022000F0AFFC00F0E9F800F03F
:1006E000EAF800F0D9F800F0D4F800F0CDF800F006
:1006F000DCF80020B4E700F058F811D500F05CF801
:100700000EDB002000F098FC00F0D2F800F0CDF8ED
:1007100000F0C2F800F0BDF800F0C4F80720BAE716
:1007200000F074F811D500F040F80EDB012000F065
:1007300083FC00F0BDF800F0BEF800F0ADF800F06A
:10074000A8F800F0AFF80020A5E794ED1A0ADFED55
:10075000A80A00F05FF80DD500F058F80ADB032076
:1007600000F06AFC00F095F800F0A5F800F094F8AD
:1007700000208BE700F035F87FF529AE94ED1A0ADA
:10078000DFED9B0A00F046F8FFF621AE052000F0F1
:1007900053FC00F08DF800F08EF800F075F800F0D2
:1007A00078F800F07CF8012057E794ED1A0AB4EECF
:1007B0004F0AF1EE10FA704794ED1A0AB4EE6E0A81
:1007C000F1EE10FA704794ED1A0AB4EE4E0AF1EE0B
:1007D00010FA704794ED1A0AB4EE4B0AF1EE10FAD3
:1007E000704794ED1A0AB4EE6B0AF1EE10FA7047F6
:1007F00094ED1A0AB4EE4C0AF1EE10FA704794ED3B
:100800001A0AB5EE400AF1EE10FA704794ED1A0A92
:10081000DFEDC80AB4EE600AF1EE10FA7047024646
:100820000B4651EC1A0B00F075BEB5EE401AF1EE16
:1008300010FA41EC100BF5EE40FA70474FF0C04251
:10084000DFF8643400F026BF53EC102B51EC190B89
:1008500001F044B820EE000A10EE100A00F09EBC31
:10086000A0780528FCD10020A0707047BDEEC00A1A
:1008700010EE100A40B2704751EC100B00F0CABDE8
:1008800041EC100B01F0FCB8042000F0DEBB0520A9
:10089000EAE1062000F0D9BB052000F0D6BB00201D
:1008A00000F0D3BB022000F0D0BB012000F0CDBB94
:1008B000032000F0CABB072000F0C7BB80B501F0E1
:1008C0005FF901F0A5F901F0D9F901F03FFADFF87D
:1008D000DC03DFF8DC130A68052A1CBF0268002A63
:1008E000F9D101BD00003443DB0F49400100B4439E
:1008F000E0B508208DF8000000208DF801000720E9
:100900008DF8020030208DF803000020ADF80400BF
:1009100010208DF8060000A801F028FA0020ADF89C
:10092000080002A801F04DFA102001F064FA07BD9A
:1009300038B52DED028B86B0044601A800210022B7
:1009400006C006C08DF800100D469FEDCF8A01222B
:10095000232100A801F079FA0622282101A801F03C
:1009600074FA9DF8002003A801A952060DD401AA2B
:1009700002EB450211F81530527803EB022220F801
:1009800015206D1C032DF2DB0DE001AB03EB4503DD
:1009900011F815205B78120252FA83F220F8152024
:1009A0006D1C032DF1DB9DF8001011F0300106D015
:1009B000102907D0202908BF9FEDB48A04E09FEDDD
:1009C000B48A01E09FEDB38A002130F9112000EED6
:1009D000102AB8EEC00A04EB810280EE080A491C16
:1009E00082ED000A0329F0DB06B0BDEC028B31BDBD
:1009F0000080934300B585B000208DF804001420DA
:100A00008DF80500E0208DF8070000208DF8060025
:100A100001A801F054FB00208DF8080040208DF85B
:100A2000090007208DF80A0000208DF80E00ADF8AF
:100A30000C0008208DF80B0002A801F0F7FA8020C6
:100A40008DF8000010208DF801000020ADF80200A4
:100A500000A801F012FB05B000BD0000F8B52DEDB7
:100A6000028B86B00446B7EE008A00F065F80623D4
:100A700001AA2821322001F0B2FB00AE01A8717852
:100A800003AD490648BF402104D49DF80020102141
:100A9000520611D4002201AB03EB42035B7810F83D
:100AA00012701B0207FA83F393FBF1F325F812305F
:100AB000521C032AEFDB12E0002201AB03EB4203DE
:100AC00010F812105B78090203FA81F1CB1001EBE8
:100AD0001371091125F81210521C032AEDDB00F0E6
:100AE0002BF8707840060FD49DF8000000F030001D
:100AF000102806D0202807D0302808BF9FED668A2E
:100B000004E0B6EE008A01E0B5EE008A002035F977
:100B1000101000EE101AB8EEC00A04EB800180EE4F
:100B2000080A401C81ED000A0328F0DB06B0BDEC8A
:100B3000028BF1BD00007A43022300AA2321322058
:100B400001F04DBBF8B5044600208DF800000646C4
:100B50000123002500AA19463C2001F040FB554F17
:100B600001233A46032100F07CF801237A1C04217A
:100B700000F077F80123BA1C072100F072F8012376
:100B8000FA1C082100F06DF801233A1D052100F040
:100B900068F801237A1D062100F063F89DF8001023
:100BA00001F0E0014FF4C87020290ED0402911D087
:100BB000602914D0802917D0A02919D0C0291BD0B2
:100BC000E02904BFE625CD261AE040F24C454FF45B
:100BD000757615E040F257354FF43E7610E040F25E
:100BE0009E254FF416760BE04FF4E175064607E0BC
:100BF000054640F2631603E04FF4A57540F2271650
:100C000000214FF47A7007EB410317F811205B784D
:100C1000120252FA83F212FB00F200EE102A00EEEA
:100C2000905AB8EEC00AF8EE600A04EB810280EE3A
:100C3000200A491C82ED000A0229E4DB39797A791D
:100C400002EB012111FB00F000EE100A00EE906AA9
:100C5000B8EEC00AF8EE600A80EE200A84ED020ABF
:100C6000F1BD3C2001F0BBBA01B41348009901600A
:100C700001680029FCD101B070470F48016811B12B
:100C80000168491E01607047000000005C8F6441EC
:100C9000EC91E442549264429FCDAA3D5001002061
:100CA00010E000E023ED00E0FB21094034010020CA
:100CB000300200201002002018020020002070479F
:100CC00000207047DFF8041300220A700870704794
:100CD00010B582B0002000900024112000F05FF9D0
:100CE0000099491C00910099B1F5A06F01D000282E
:100CF000F3D0112000F053F900B10124204616BDB5
:100D0000DFF8D01208607047DFF8C4120A68920852
:100D100040EA820008607047DFF8B402006800F023
:100D20000C007047F0B5DFF8A812DFF8AC220C68B1
:100D3000002304F00C04082C13D10B680C68C3F3D7
:100D400083439B1CE40303D4DFF89042634306E033
:100D50008C6A04F00F04641CB2FBF4F463431C4679
:100D600000E0144604600D68DFF87442C5F3031513
:100D70002D5D076827FA05FCC0F804C00E68C6F3AD
:100D80000226365D2CFA06F686600E68C6F3C22689
:100D9000365D2CFA06FCC0F80CC0D1F828C0CCF3A4
:100DA000041C04EB4C0CBCF810C05FEACC6E48BFCE
:100DB000B3FBFCF707618F6AC7F3442704EB4704D2
:100DC000248AE7064CBFB3FBF4F404684461CC6AA0
:100DD000E40654BF144604688461CC6AA40654BF78
:100DE00014460468C4615C00CF6AFF0505D5076836
:100DF0009F4204BFAE42274600D0C7680762CF6A51
:100E0000BF0504D507689F4208BFAE4200D0C46842
:100E100044624FF40043CC6A14F0030F08BFC46867
:100E200005D0CC6A04F00304012C02D1046884626A
:100E30000CE0CC6A04F00304022C08BF836205D0E6
:100E4000CC6A04F00304032C08BF8262CC6A14F459
:100E5000403F08BF846806D0CC6A04F44034B4F53F
:100E6000803F02D10468C4620EE0CC6A04F44034CE
:100E7000B4F5003F08BFC36206D0CC6A04F4403426
:100E8000B4F5403F08BFC262CC6A14F4402F08BFDB
:100E9000846806D0CC6A04F44024B4F5802F02D1D3
:100EA000046804630EE0CC6A04F44024B4F5002F17
:100EB00008BF036306D0CC6A04F44024B4F5402F85
:100EC00008BF0263CC6A14F4401F08BF846806D0D0
:100ED000CC6A04F44014B4F5801F02D10468446362
:100EE0000EE0CC6A04F44014B4F5001F08BF43635D
:100EF00006D0CC6A04F44014B4F5401F08BF426326
:100F0000CC6A14F4400F08BF816806D0CC6A04F4A0
:100F10004004B4F5800F02D101688163F0BDCC6A52
:100F200004F44004B4F5000F01D18363F0BDC96A35
:100F300001F44001B1F5400F08BF8263F0BD2949BB
:100F400008607047284A0029116814BF084321EA45
:100F5000000010607047254A0029116814BF08433B
:100F600021EA000010607047214A0029116814BF6F
:100F7000084321EA0000106070471E4A00291168EA
:100F800014BF084321EA0000106070471A4A002984
:100F9000116814BF084321EA00001060704741093E
:100FA000094A08BF116807D0012908BF116A03D098
:100FB00004290CBF5168516A00F01F0021FA00F0AB
:100FC00000F00100704700000010024002100240D3
:100FD000041002406000424200127A0000093D0005
:100FE00030000020D8004242141002401810024085
:100FF0001C1002400C100240101002401CB50446A8
:101000000FF2341000F07EF80FF21C1030F81400CC
:10101000009000A901208DF8040000208DF8060042
:1010200001208DF8070003208DF805003C4850F89A
:10103000240001F0D5F913BD39490FF2EC0251F843
:10104000201032F810008861704735490FF2D8023D
:1010500051F8201032F810000885704730490FF21F
:10106000C80351F820108A8A33F810005040888253
:10107000704730B504460FF2E40085B00D4600F02D
:1010800041F801210120FFF766FF00208DF81000D4
:101090008DF8130003A90FF2C00030F8140003907C
:1010A000204850F8240001F09BF9012D28D10FF2BF
:1010B000B800215C0FF2AC00205C01F0E5F90FF202
:1010C000A00030F81400019000208DF808000820DE
:1010D0008DF8090001208DF80A0001A801F0E8F957
:1010E0000FF28800205C8DF800000F208DF80100C1
:1010F0008DF8020001208DF8030000A801F075FAB8
:1011000005B030BD50F824000121FFF71BBF0FF2DE
:101110004801044A31F8101052F8200001F097B944
:10112000800000203801002000020001000400803F
:1011300000080040001000200000200000002000F7
:10114000000020000000200000002000000020001F
:10115000000020000000200001000000000002004C
:10116000000000000000000000000000060010B4B5
:1011700050F8041B81B102681218001D50F8043B9E
:10118000DC0744BFA9F10104E31852F8044B43F80B
:10119000044B091FF9D1EBE710BC70475FF0FF0C5F
:1011A0001CEAD05114BF614506E0C110400721F090
:1011B000E04101F16051704779B900F0004100024F
:1011C0000AD0B0FA80FC00FA0CF001F16051A1EBFA
:1011D0000C5101EBD0214005704741020CBF40F497
:1011E000E0016FF000010020704750F8041B61B16E
:1011F00050F8042BD30744BFA9F101039A18002328
:1012000042F8043B091FFAD1EFE77047D0B52DED46
:10121000048B82B041EC180B8DED008BDDE90023CF
:10122000C3F30A5140F2FF72914206D1190350EA0A
:10123000113018BF51EC180B61D151EC180B002282
:10124000002301F009FA3DBF81F0004141EC180B89
:101250000424022451EC180B2B4A2C4B01F0FCF90E
:101260001CD29FED2C9B51EC190B53EC182B00F06A
:1012700051F906460F4653EC182B51EC190B00F0B0
:1012800055F832463B4600F029FB00F001FC41ECEA
:10129000100B51EC180B53EC102B1EE001221C4BD1
:1012A00001F0DAF923D29FED1B9B51EC190B53ECA3
:1012B000182B00F02FF906460F4653EC182B51EC73
:1012C000190B00F033F832463B4600F007FB00F004
:1012D000DFFB84F0020453EC182B00F0DBF902B0C2
:1012E0002246BDEC048BBDE8D04001F0CDB901F041
:1012F000C3FA212101604FF0FF306FF0004102B0CE
:10130000BDEC048BD0BD0000CE3B7F669EA0E63FC7
:101310000000F03F000000000000F03F80B551ECFD
:10132000100BFFF773FF41EC100B01BD70B44FF0D1
:10133000004591EA030C44BF6B4000F0F5B800BFD4
:10134000841A71EB030603D2001BB14112197341D9
:101350004FF4001C1CEB410F34BF7CEB430443E013
:101360000C0DA4EB1356352E50DC45EAC323DB0AE3
:1013700045EAC121C912B6F120050DDD63FA05F673
:10138000EB4086EA0305124218BF45F00105C0187C
:1013900051F100010CD213E062FA06F5F24055401B
:1013A000F3415A40B340F3405A408018594107D3A3
:1013B00049085FEA30005FEA350528BF45F00105BE
:1013C00001F58011420875F1004250F1000041EB37
:1013D000045170BC4FF4001C1CEB410F38BF704728
:1013E0000020090D090570471CEB410F10D252EA8D
:1013F00043060BD0BCEB410F05D80C0DAB43661E6A
:10140000342EB5DD02E0AB438018594170BC704703
:1014100070BC70474FEAF17CBCF1E04C2CBFBCF5CE
:10142000001F11E05FEA4C0C34BFBCF17F5F2EE07F
:101430005FEA9C0C4FEA0C1C4FEA3C0CC10071F1B6
:1014400000414CEB50707047C90241EA5051C00254
:1014500018BF41F0010141F000414FEA6C50C0F16A
:101460000900212810D240EACC7CCCF1200C11FAE2
:101470000CF070F10040CCF1200C21FA0CF00CF0D3
:10148000004C40EB0C0070474FEACC7070474900AD
:1014900011F5001F04D84FEACC10FF30C00570478B
:1014A000C817704710EE101A10EE902AB0EEC00A5E
:1014B000C80F49005200F0EEE00A28BF0C3011F1CD
:1014C000807F38BF12F1807F0CD28A4238BF80F013
:1014D0000400124214D034BF80EE800A80EE200A4D
:1014E00001F0D0B911F1807F08BF80F0040098BFEF
:1014F00012F1807F08D88A4214BF00224FF07E523A
:1015000000EE102A01F0BEB96FF0004100EE101A93
:101510007047000070B44FF0004591EA030F44BFDC
:101520006B40FFF70DBF00BF841A71EB030604D2B6
:101530006E40001BB141121973414FF4001C1CEBAB
:10154000410F34BF7CEB430684E00C0DA4EB135633
:10155000362E7DDC012E43DC45EAC32343EA525399
:1015600012BFD20292025B08240545EAC12141EA7A
:101570005051D2EBC020994125D407D1B0FA80F662
:1015800010FA06F164D00020203608E0B1FA81F6A6
:10159000B140C6F1200220FA02F21143B0404FEAF6
:1015A000F474B4EB465434F001064FEA74040AD8DC
:1015B000D6F50016760D04F00044F04061FA06F20C
:1015C0005040F1404840C00A40EA415021F00041FB
:1015D00028BF5FEA500550F1000044EBD12137E00D
:1015E00045EAC323DB0A45EAC121C90AB6F1200551
:1015F0000EDD42EA0242120CC5F1200603FA06F69D
:10160000EB4042EA06056D42984161F100010DE0B0
:1016100062FA06F5F240554063FA06FC82EA0C02D3
:10162000F3405A406D42904161EB030111F4801F79
:1016300005D1641E620502D06D004041494121F48C
:101640008011430875F1004350F1000041EB045153
:1016500070BC70471CEB410F15D223F0004352EAD7
:1016600043060BD04FEA4C0CBCEB410F04D80C0DD9
:10167000661E342EB7DDEBE7801A994150EA410629
:1016800008BF0021E4E708BF1CEB430F28BF6FF041
:101690000001DDE7F0B540F2FF7581EA030C0CF0C4
:1016A000004C15EA11541DBF15EA1357AC42AF4266
:1016B000E5E0BC41C1F31301C3F31303801A994160
:1016C00043F4801304D2641E4000494180185941FC
:1016D000C90241EA5051B1FBF3F603FB1611A2FB1C
:1016E0000675D7EBC020A94102D2761E8018594159
:1016F000C90241EA5051B1FBF3FE03FB1E11A2FBEC
:101700000E75D7EBC020A94103D2AEF1010E8018AF
:101710005941890241EA9051760546EA8E2EB1FB85
:10172000F3F603FB1611A2FB0675D7EB8020A94147
:1017300002D2761E80185941C90241EA50514EEA40
:10174000060EB1FBF3F603FB1611A2FB0675D7EBF1
:10175000C020A94102D2761E80185941C90241EA2F
:101760005051B1FBF3F703FB1711A2FB0735D3EB85
:10177000C020A94167F100070CBF004247F00107F4
:1017800066F3D5274FEA1E31B80814F5806412DDE0
:10179000BD0775F1004250EB0E5051EB045111F5AD
:1017A000801F5CBF41EA0C01F0BD4CF07F6141F04D
:1017B000E0410020F0BDBD076D0840EA0E5041F445
:1017C0008011D4F10104B4F120060ADAC4F1200634
:1017D0000200E04001FA06F3E1401843B24015432D
:1017E0000EE0342C13DCC6F1200445EA40056D08F8
:1017F00020FA06F2154321FA06F0A1400D4300211C
:1018000075F1004250F1000051EB0C01F0BD0020D9
:101810005FEA0C01F0BDCFB992185B41B3FA83F7D0
:1018200004BFB2FA82F6BF190B3FB7F120062FBFF3
:1018300002FA06F3BB40C7F1200622FA06F638BFCB
:101840003343BA401CB1E419641E33E77F4231F0E0
:101850000041B1FA81F404BFB0FA80F6A4190B3C40
:10186000B4F120062FBF00FA06F1A140C4F1200612
:1018700020FA06F638BF3143A0403C1B1AE7AC42C1
:101880001ABF05EA1357AF4212E050EA41061CBFE7
:1018900052EA4306BFE750EA4107304661461CBFA3
:1018A00041EA0551F0BD52EA430C08BFC143F0BD07
:1018B00000204FF4001616EB410F98BF16EB430FB4
:1018C00008BF16EB410F24BFC14305E016EB430FE1
:1018D0000CBF61464CEA0551F0BD0000B0B581EA8D
:1018E000030C0CF0004C40F2FF7515EA11541DBFBB
:1018F00015EA1357AC42AF4239E0E41923EA4553E5
:1019000043F48013C90241F0004141EA505EC7022E
:101910001100A7FB020200284FF00000EEFB01209F
:101920004FF00001E3FB072118BF42F0010240180D
:1019300000214941E3FB0E01A4F580640F0302D2AC
:1019400052004041494154F101046CDD470872F1F5
:10195000004250F1000051EB0451A1F580115CBF31
:1019600041EA0C01B0BD4CEA05510020B0BD05EACA
:101970001357AC4214BFAF4241E050EA410E1CBFC6
:1019800052EA430E02E061460020B0BD24423C44CE
:101990001BD15FEA070EF6D0090302BF0146002003
:1019A000AEF1140EB1FA81F7AEEB070401FA07FEAF
:1019B0000C37C7F1200100FA07F7C8404EEA000EC5
:1019C00023EA455343F48013A2E733F00043B3FA0C
:1019D00083F704BFB2FA82FE77440B3FE41BB7F1F2
:1019E000200E2FBF02FA0EF3BB40C7F1200E22FAE1
:1019F0000EFE38BF43EA0E03BA40641C82E750EA89
:101A0000410E14BF52EA430E6FF000014FF400176D
:101A100017EB430F8ABF194617EB410FB5E74CEAA6
:101A200005510020B0BDD4F10104B4F120070FDA54
:101A3000C4F12007520828BF42F0010210FA07F54E
:101A400001FA07F7E1BF2A43E0403843E1400FE0E5
:101A5000352C98DCC7F1200452EA400220FA07F244
:101A600018BF42F0010231FA07F0A1400A430021F9
:101A700072F1004250F1000051EB0C01B0BD0000CA
:101A800051EC100B00B500F003F841EC100B00BD59
:101A900040F2FF7C0B0D4DD0634566D230B421EA95
:101AA000035141F4801103F2FD3C5FEA5C0C01D369
:101AB00000184941890041EA907180004FF44014B8
:101AC0000023E202D50AB1F5100107D46D081DD23A
:101AD000091B641900184941491BF7D56D080AD242
:101AE0000919641B00184941491BEFD56D08F7D34C
:101AF00001E0520817D0C01861419B1AAC41001890
:101B00004941801AA941F4D452080AD0C01AA1410F
:101B10009B186C4100184941801AA941E9D4520828
:101B2000F4D15B1C6C4161084FEA330001EB0C51AE
:101B300030BC704750EA0103FBD030B4B1FA81F3F6
:101B400011B9B0FA80F41B190B3BB3F120042FBF7D
:101B500000FA04F19940C3F1200420FA04F438BFDC
:101B600021439840D3F101039DE76345E1D011F58E
:101B7000801FDED850EA4101DBD0D94300F0D4BE4B
:101B800000B583B001214FF08050FFF7EDF901213E
:101B90000120FFF7E0F901214FF40010FFF7D2F91F
:101BA00001214FF40030FFF7CDF94FF4C050009001
:101BB00000A903208DF8050002208DF80400002004
:101BC000ADF806004FF0904000F00AFC0E220B2109
:101BD0004FF0904000F046FC0E220C214FF0904058
:101BE00000F040FC01210020FFF743FA122000F032
:101BF000E1FC454812210160002101710821417179
:101C00000121817100F054FC002000F0D3FC07BDDD
:101C100080B50020FFF793F9BDE8044001214FF49F
:101C20000000FFF7A1B93A4803210160002000F04D
:101C3000C1BC80B50120FFF745F8FFF749F83549E9
:101C400008701120FFF7ABF90028FAD00120FFF748
:101C500057F81920FFF7A3F90028FAD00220FFF760
:101C600053F8FFF759F80828FBD12B492848897AFF
:101C7000002914BF05210121016001BD80B54FF489
:101C8000A06000F0ADFC14208DF8000002208DF85B
:101C9000010000208DF80200012000F012F82A2037
:101CA0008DF8000001208DF8010000F00AF80620F0
:101CB0008DF8000000208DF8010000A800F095FCD0
:101CC00001BD8DF8030000A800F08FBC0F4A00286A
:101CD0004FF48041104618BF00F0C2BB00F0BEBBFD
:101CE00038B50E4801684468806840180BD00C4D28
:101CF0000822A91C00F016F805F112012046BDE8E3
:101D0000384004220EE031BD0802002000100048D7
:101D1000300200203A020020E0010020E8F7FF1F17
:101D2000C000002030B50023002506E001F8134074
:101D3000000101EB43045B1C6570934205DA040F5C
:101D40000A2C34BF30343734F0E730BD0448054A3C
:101D5000C0610221017242620349016208680047C2
:101D6000E00100205C0000200000002010B582B0DF
:101D700004460020ADF8000000F08AF800F017F8E3
:101D8000A2781143E278114308438DF801002179CC
:101D900062799DF800001143A27900F026F8202115
:101DA0000DF1010000F03AF80122232105E021782D
:101DB00062789DF801001143704700A800F02EF8EA
:101DC00013BD10B582B004460122212100A800F005
:101DD0003CF89DF8000000F0C0008DF8000021786C
:101DE000627800F002F82121E7E7114308438DF8FB
:101DF00000000122704710B582B0044600F00AF8D6
:101E00009DF8000000F0EF0020438DF80000012253
:101E10002421D2E70122242100A816E0F8B51646B5
:101E200004460D46022EA8BF45F0400500F02BF8F1
:101E3000284600F0C9F804E014F8010B00F0C4F8DB
:101E4000761EB6B2002EF7D117E0F8B51546044657
:101E5000022DACBF41F0C00641F0800600F013F83F
:101E6000304600F0B1F805E0002000F0ADF804F8CD
:101E7000010B6D1EADB2002DF6D13846BDE8F44021
:101E8000082100F0EBBA664F0821384600F0E8BAA6
:101E900010B588B001214FF48050FFF75CF80121A4
:101EA0004FF40030FFF74EF800F089F800F087F8A3
:101EB00000F085F80522052100F07DF805220621B5
:101EC00000F079F80522072100F075F802208DF85E
:101ED000040000A90020ADF8060003208DF80500DD
:101EE0002020009000F063F8802000F05EF8402091
:101EF00000F05BF84B4C204600F01CFD0020ADF8D4
:101F0000080002A94FF4E060ADF80C000020ADF825
:101F10000E00ADF810004FF40070ADF81200102064
:101F2000ADF814000020ADF816000720ADF8180039
:101F30004FF48270ADF80A00204600F02DFD4FF4FA
:101F40008051204600F071FD0121204600F063FD24
:101F50000820009001208DF80400002000F01FF8F8
:101F600000A92F4C204600F03BFA0821204600F043
:101F700075FA0120009000A900208DF8040000F0FF
:101F80000EF800208DF80700204600F029FA022004
:101F9000009000A9204600F023FA08B010BD8DF88B
:101FA000060003208DF805007047009000A94FF04F
:101FB000904000F015BA4FF0904000F053BA012164
:101FC0004FF40010FEF7BEBFF8B5174D154F4FF494
:101FD000805604462E600221384600F034FD28B9B0
:101FE0002868411E29600028F5D10EE021463846B8
:101FF00000F01FFD2E600121384600F024FD40B99D
:102000002868411E29600028F5D1FEF759FEC0B2AC
:10201000F2BD3846BDE8F24000F00DBD0000000002
:1020200000100048003001403C01002010B582B093
:1020300004460020ADF8000000F042F921786278F3
:102040009DF801001143A278114308438DF8010067
:10205000217962799DF800001143A2791143E27859
:10206000114308438DF800000DF1010220213220B8
:1020700000F053F800AA23211DE010B582B000F053
:102080000FF89DF8000000F00C008DF8000021789A
:1020900062781143A2781143E2781143084306E0C5
:1020A0000446012300AA2121322098E020438DF824
:1020B000000000AA2121322000F02FF813BD10B536
:1020C00082B0044600208DF80200ADF8000000F058
:1020D000F7F8217862789DF80200114308438DF8E3
:1020E00002000DF102029DF80100E17808438DF82D
:1020F0000100A1789DF8000008438DF80000002140
:102100003C2000F00AF80DF1010201213C2000F012
:1021100004F800AA02213C20CEE72DE9F843A64DA1
:10212000A64F4FF420468046894614462E604FF451
:10213000004100F04CF818B100F04CF8F7D135E050
:102140004FF4005000904FF0807300F03AF82E608A
:1021500000F03CF818B900F03DF8F9D126E0494606
:10216000384600F0BFFC2E60802100F030F818B92E
:1021700000F030F8F8D119E0002000904FF0007323
:1021800000F01FF82E6000F021F818B900F022F8D6
:10219000F9D10BE02178384600F0A4FC2E60202114
:1021A00000F015F830B900F015F8F8D1FEF786FD0B
:1021B00080B204E02021384600F0A0FC0020BDE8F9
:1021C000F28301224146384600F078BC02213846AD
:1021D00000F08DBC2868411E2960002870472DE959
:1021E000F047754F82B04FF4204582460C4690462A
:1021F0001E463D60DFF8C4914FF4004100F058F8EE
:1022000018B100F058F8F7D147E04FF400500090B3
:10221000002301225146484600F050FC3D60022157
:1022200000F046F818B900F046F8F8D135E0022E73
:10223000A8BF44F080042146484600F053FC3D60AE
:10224000402100F035F818B900F035F8F8D124E055
:102250004FF4105000904FF00073F2B251464846D0
:1022600000F02CFC05E0484600F03EFC08F8010BAD
:10227000761EB6B2002E3D6008D0042100F018F89A
:102280000028F0D100F017F8F7D106E0202100F087
:102290000FF830B900F00FF8F8D1FEF70FFD80B25B
:1022A00004E02021484600F029FC0020BDE8F68724
:1022B000484600F01CBC3868411E39600028704751
:1022C00030B58BB001214FF40010FEF74DFE012117
:1022D0004FF48020FEF736FE00F07DF800F07BF82A
:1022E00000F079F8364C04220621204600F0BAF8B6
:1022F00004220721204600F0B5F802208DF80400E2
:1023000000A900208DF8060002208DF807000320A8
:102310008DF8050040200090204600F061F88020F4
:1023200000F054F800208DF80400ADF806000320FA
:102330008DF805000420009000A9224C204600F0F2
:102340004FF80221042000F09FF8022002900020A4
:102350008DF80C0008208DF80D0001208DF80E007E
:1023600002A800F0A5F800200790059006900890BC
:1023700009900A9004A91448104D0490284600F0D2
:1023800069FB0121284600F090FB1020009000A975
:1023900000208DF804008DF8060003208DF805005C
:1023A00000208DF80700204600F01AF8202000F0E9
:1023B0000DF80BB030BD000040010020005400407B
:1023C000000400480010004825209000009000A95B
:1023D000204600F005B801214FF40010FEF7B2BD11
:1023E000F0B5002201230C6893401C409C422AD186
:1023F00054000325A5400E79ED43012E18BF022E8F
:1024000010D186682E40866086684F79A7403E438B
:102410008660868826EA0303838083888E799640C7
:102420003343838003682B40036003680E79A64022
:1024300033430360C3682B40C360C368CD7905FA9A
:1024400004F42343C360521C102ACBD3F0BD008A8E
:102450000022084218BF0122104670478161704770
:102460000185704710B5CB0800EB830001F0070130
:102470008900036A0F248C40A343036202FA01F12E
:10248000036A1943016210BD30B501F0030221F067
:102490000301064B9200CC580F259540AC43CC501D
:1024A0009040CC582043C85030BD00000800014087
:1024B000F0B50268012102F01F0301FA03F3DC43C7
:1024C00085795309414A002D58D002EB43131D680A
:1024D0002C401C6003683E4D5C0905EB441403F07E
:1024E0001F03256801FA03F325EA03032360046848
:1024F0000379650903EB4513D31804F01F041D6825
:1025000001FA04F42C431C60324B0468650903EBA8
:10251000451504F01F042E6801FA04F426EA0404A9
:102520002C6005682C4C6E0904EB461605F01F055F
:10253000376801FA05F527EA05053560056847792A
:1025400005F01F066D096D0101FA06F6102F0FD177
:102550005A191368334313600068420904EB4212AE
:1025600000F01F00136801FA00F018431060F0BD7E
:1025700055FA87F013181868304305E0007900EB2E
:1025800043101318186820401860F0BD00F01F02B7
:1025900010B5400940010D4B1B58012494402340C5
:1025A0000E4C20580021D040C00701D503B10121B5
:1025B000084610BD00BF012100F01F0291404009F4
:1025C0004001064A1150704700000000000401401D
:1025D00004040140080401400C04014014040140BB
:1025E0001849084318490860704770B50378C478E3
:1025F0001A460121ECB1144B1B68447803F4E063E4
:10260000C3F5E0631B0AC3F10405AC4085780F26CF
:1026100026FA03F32B4023430C4C1B01135500787F
:102620000B4B420900F01F0001FA00F043F82200B2
:1026300070BD5009074A03F01F03994042F820106B
:1026400070BD00000000FA050CED00E000E400E0C1
:1026500000E100E080E100E04FF4001C1CEB410FC2
:1026600094BF1CEB430F09E041EA030C50EA4C0C09
:1026700052EA0C0C03D2994208BF9042704714BF33
:102680008B42824270470000D0B514462DED048B7A
:10269000534A544B00F034FA41EC180B1DD89FED0F
:1026A000529B53EC182B51EC190BFFF717F9002232
:1026B0004F4BFEF73BFE06460F4653EC182B51ECF2
:1026C000190BFEF733FE02460B4630463946FEF73D
:1026D000E1FF41EC180B44F0010451EC180B00220F
:1026E000444BFFF7B9FF05D301224FF0795300F0B7
:1026F00007FA51D853EC182BFFF7F0F841EC190BFF
:1027000053EC182BFFF7EAF806460F4653EC192B4B
:1027100039483A49FFF7E2F8394A3A4BFEF706FEE4
:1027200053EC192BFFF7DAF8374A384BFEF7FEFD6A
:1027300032463B46FFF7D2F853EC182BFEF7F6FD76
:1027400006460F4653EC192B31483249FFF7C6F8BD
:10275000314A324BFEF7EAFD53EC192BFFF7BEF876
:102760002F4A304BFEF7E2FD53EC192BFFF7B6F87A
:102770002D4A2E4BFEF7DAFD53EC192BFFF7AEF87E
:102780002B4B0022FEF7D2FD02460B46304639465F
:10279000FEF780FF41EC180BA00705D551EC180B94
:1027A00081F0004141EC180B14F007020BD00FF23E
:1027B000880303EBC20251EC180B53681268FEF752
:1027C000B5FD41EC180B200705D551EC180B81F035
:1027D000004141EC180B51EC180BBDEC048BD0BD43
:1027E00057CD9E5E1426D13FAA4C58E87AB6FB3FDF
:1027F0000000F0BF000040BE845D57134B57B03F50
:10280000B2934C19ED5EE43FBEDE02B90240F83FE0
:10281000DE39028FC7C0743F8AAB1283000CC83FF9
:1028200024D7E508B6D8F03F0F34580E5895FD3F31
:102830000000F03F00000000000000000000000069
:1028400066732D3852C1E03F182D4454FB21F93FE7
:1028500066732D3852C1F03F182D4454FB21F93FC7
:1028600066732D3852C10040182D4454FB21094095
:102870003FD038C6A6F10440014800F058B9000026
:10288000480100201AA210EE101ADFF860C0F2EC26
:10289000060A614509DB00EE803A70EE800A83EE9D
:1028A000200A40F0020010EE101A21F0004CDCF17A
:1028B000665C0BD860EE000A20EE203A03EE010AB7
:1028C00001EEA02A42EE202A80EE220A400810F0F3
:1028D000020F18BFB1EE400A02EB8002D2ED000AEF
:1028E00030EE200A28BFB1EE400A7047A430893E7E
:1028F000D7B3DD3F6AD5033F2B94A93DB82A593F92
:102900000000803F000080BF00000000920A063FE8
:10291000DB0FC93F920A863FDB0FC93F920A064090
:10292000DB0F4940368D27401FB5FFF7A5FF21215A
:1029300001601FBD80B5154988420BD101214FF4BC
:102940008050FEF71AFBBDE8044000214FF4805090
:10295000FEF713BB0E49884208D101214FF4804095
:10296000FEF714FB00214FF480400AE00949884239
:102970000BD101214FF40040FEF708FB00214FF47A
:102980000040BDE80440FEF701BB01BD003001403E
:1029900000380040003C004010B54A88B2F5827F04
:1029A00018D103880C8803F4415323431A43CB887E
:1029B0001A430B891A434B891A438B891A43CB89D3
:1029C0001A4302804FF2FF0382881A408B881A4311
:1029D000828018E04FF2FF0382881A408B881A43E6
:1029E000828002880B8802F441521A434B881A43B2
:1029F000CB881A430B891A434B891A438B891A4394
:102A0000CB891A4302804FF2FF73828B1A40828374
:102A1000098A018210BD0029018812BF41F04001DE
:102A20004FF6BF7211400180704782884EF6FF73E7
:102A300003E001737047007B70471A4082808288F0
:102A400011438180704700890022084218BF01228B
:102A5000104670470268204B52085200026002681C
:102A60001A404B681A438B6842EA032202600A68E4
:102A700022F070620261026842F0010202600022EC
:102A80008260C2600B698A691A438260826842F47C
:102A9000004282600268CB681A4302600F4B4268B2
:102AA00049691A401143416070470029016812BF0B
:102AB00041F00101490849000160704730B54468A0
:102AC000074D2C40890554EA915141EA0241039A8D
:102AD00019431143416030BDFFE0CF00FF7FFF0786
:102AE000009800FC81627047406AC0B270478069FC
:102AF0000022084218BF012210467047C16170478A
:102B00004FF4001C1CEB410F94BF1CEB430F09E07A
:102B100041EA030C50EA4C0C52EA0C0C03D28B42F3
:102B200008BF8242704714BF994290427047704775
:102B300010B5DFF8884700B92BE000F099F800687D
:102B4000804720680A3010BD80B5DFF87007DFF8D5
:102B5000702700685278C1788A420CD38278002AA4
:102B600004BF8288002A06D1817200F081F8406893
:102B70008047002002BD022002BD10B5DFF83C47AF
:102B800000B906E000F074F88068804720680C30D7
:102B900010BD206801210182002010BD10B5DFF8B2
:102BA0001C47DFF8202720681268C17840799269B5
:102BB000904721688A7A92B1002804BF08790028DA
:102BC0000DD1887858B900F053F8C0688047206864
:102BD0004179C1722068C1780173002010BD0220C4
:102BE00010BD1CB5DFF8D416096810B902200882A0
:102BF0003CE0DFF8D44600202080002208787F23C4
:102C0000184215D1487A81064CBF42F0020102F009
:102C1000FD0121704006217854BF01F0FE0041F013
:102C20000100207000F024F800698047204616BD9E
:102C300000F07F03012BF9D000F07F00022815D1AE
:102C40004879DFF8883600F00F01000653F82100BC
:102C500042F0010205D500F030001028E2D12270C8
:102C6000E0E700F44050B0F5805FF7E7002016BDC4
:102C7000DFF85C0600687047F8B5DFF840060068CA
:102C8000017811F07F0104D1417A01F0DF01417236
:102C90004FE0022901BF41880029017900294AD16A
:102CA0004179DFF8284621F080050A0654F82520EE
:102CB0004CBF02F0300202F44052DFF804361B78B9
:102CC0009D4238D2002A1CBF807A002833D00806E3
:102CD00054F825000BD500F03000102825D12846E7
:102CE00000F076FB3021284600F01DFB1DE000F4CB
:102CF0004050B0F5805F18D148F280064BF68F77D0
:102D000045B900F0B4FA2068384080F440503043B0
:102D100020600AE0284600F049FB54F825003840BE
:102D200080F44050304344F82500FFF7A1FF40698C
:102D300080470020F2BD0220F2BD38B5DFF87C05E7
:102D4000DFF888150268537923F080001C0651F8DB
:102D500020404CBF04F0300404F44054DFF86055C8
:102D60002D78A84206D2558825B9002C1CBF927A2E
:102D7000002A01D1022032BD1B0651F8203048F252
:102D8000800205D548F6BF74234083F0100304E0A9
:102D90004BF68F74234083F480531A4341F820206C
:102DA000FFF766FF80698047002032BD80B5DFF8FD
:102DB0000C050068417A41F020014172FFF758FF8D
:102DC000C0698047002002BDDFF8F0241268538AF2
:102DD00020B98888C01A1082002070470868181827
:102DE00070472DE9F843DFF8D444DFF8E854206851
:102DF00000F110063188002904BF007A042816D19A
:102E0000DFF8D404017801290DD1DFF8D014DFF800
:102E1000D024096889B2002342F81130302129807A
:102E2000042703702CE010200727288028E0B6F83C
:102E30000480884505D30427414588BF414688461C
:102E400000E00227B168404688478146002000F034
:102E5000D8FA01464246484600F025FB414600208C
:102E600000F0D7FA3088A0EB080030804FF44051D2
:102E700070884044708030202880DFF8680401802A
:102E800020680772BDE8F18338B5DFF83044206868
:102E9000457801787F22114238D1092D02D1FFF700
:102EA00053FE47E0052D1BD1C178802950DA817887
:102EB000002901BF81880029807A002848D1DFF8E5
:102EC0001C14DFF81C24096889B2002342F8113071
:102ED0000620DFF8001430220A802168087231BD14
:102EE000032D08D1C178012904BF8088002823D18F
:102EF000FFF75CFF1EE0012D04BFC17801291BD143
:102F00008188C9B9407A80060DD415E001F07F00B0
:102F1000012804D10B2D0FD1FFF740FE0AE0022853
:102F20000AD1012D02D1FFF7A7FE03E0032D03D143
:102F3000FFF703FF0028C2D0DFF88813096849694A
:102F400028468847032808BF0920C6D00028B6D0E5
:102F50000820C2E730B5DFF86453DFF8684328681B
:102F600083B04178062913D101787F2211422AD1FA
:102F70008078012802D12068C1696AE0022802D164
:102F80002068016A65E003281DD12068416A60E07D
:102F900000293FD14188002904BFC188022912D1EC
:102FA000017981B901787F22114204BF8288002A09
:102FB0002ED001F07F02012A10D100F08CF810B958
:102FC0002868807A20BB286821684078096988478A
:102FD000032847D128680921017237BD01F07F011C
:102FE0000229F0D14079B94B00F00F0100F07002D6
:102FF000000653F821004CBF00F0300000F44050B0
:10300000AF4B1B789942DED2002ADCD10028DAD0FF
:10301000B5491EE0082905D100787F210842D2D1A8
:10302000B24916E00A2902BF017801F07F010129A7
:10303000C9D1817A0029C6D04188002901BF017910
:103040000029C1880129BED100F045F80028BAD175
:10305000A7490800B7D02868002242828161002079
:103060008847002029680B8A1A464FF6FF75AA4246
:1030700008BF092004D0022818BF002B02D1082065
:10308000087237BD087800061ED5C88800902468ED
:10309000009D9D4202D2009808820FE083420DD22B
:1030A00094F82C008C4D834238BF002005D392FB4E
:1030B000F0F300FB132008B90120287094F82C00CD
:1030C0008882BDE837408CE6032008724FF44051F7
:1030D0008448018037BD22684079926900211047F9
:1030E00038B57E4883490068744C80B231F81000CE
:1030F00021680A7A400000F1804000F5C040092AAA
:1031000014D010F8012B0A70216810F8012B4A70B6
:10311000851C35F8040B00F0C1F921684880288827
:1031200000F0BCF921688880A888C8800121206847
:1031300001722068C08810B9FFF7A6FE01E0FFF712
:1031400009FFBDE831407CE010B500F096F818BFEB
:10315000042904D1FFF745FE2068007A14E006290F
:1031600011D14178052902BF01787F22114206D191
:10317000C07800F087F8FFF77BFD006A8047514870
:10318000006880688047082021680872BDE8104008
:1031900057E0F8B500F071F818BF04294CD00329A6
:1031A00018BF052942D100F11005A9682E88080032
:1031B00018BF002E14D0A888864288BF0646304625
:1031C000884707462888801B2880688830186880D0
:1031D000002000F017F901463246384600F078F931
:1031E00028883C4E48B13F484FF4405101800020B0
:1031F000002100F00EF9302030802888AA8821684C
:10320000904228BF032001D210B1052008720AE0C5
:1032100006200872002231483149006880B241F826
:103220001020302030802068007A06E0072903D182
:1032300024480068C0688047082021680872BDE8FB
:10324000F14080B500F013F81C480068017A0829A5
:1032500006D124494FF480520A8010221D490A8069
:10326000007A092801D1012002BD002002BD2248B8
:1032700090F82C10002000F0D3B8104C2068017A90
:103280000229704770B50E49104B0978002248F6A4
:103290008F760BE0D4B253F824503540254345F4E3
:1032A000004545F0800543F82450521C8A42F1D372
:1032B000124940F08000086070BD0000FC01002051
:1032C000440100200002002020020020005C004099
:1032D00004020020260200203B020020505C004037
:1032E0000460004024020020E32B0008312B00087A
:1032F0007B2B000808600040000000204C5C004070
:10330000704700004FF6F8710840DFF87811086048
:10331000704710B5DFF8702152F8203048F68F144E
:103320002340194324E010B5DFF85C2152F8203027
:1033300048F6BF742340CC0648BF83F010038906CB
:1033400048BF83F020030FE010B5DFF83C2152F8AE
:1033500020304BF68F742340CC0448BF83F4805355
:10336000890448BF83F4005343F4004141F08001D5
:1033700042F8201010BDDFF8101151F820204BF654
:103380008F731A4082F4405242F4004209E0DFF8A1
:10339000F81051F8202048F68F631A4042F400429A
:1033A000FFE742F0800241F820207047DFF8D81094
:1033B00051F8202052040AD551F8202048F68F7386
:1033C0001A4042F4404242F0800241F82020704707
:1033D0002D4951F8202052060AD551F8202048F6F0
:1033E0008F731A4042F4004242F0C00241F820209C
:1033F000704731E0234A126892B202EBC000234AC0
:1034000030E034E01F49096889B201EBC0001F4970
:1034100033E01C4A126892B202EBC0001C4A23E05F
:10342000184A126892B202EBC0001A4A02EB40003E
:103430003F2909DB4A091F23194208BF521E120403
:10344000910941F4004105E04A08C90748BF521CF0
:1034500012049109016070470A4A126892B202EBA5
:10346000C0000D4A4908490042F81010704705494C
:10347000096889B201EBC000074951F8100080B219
:1034800070470000505C0040005C00400860004055
:10349000046000400C600040006000400106090C20
:1034A00041EA1020704710B5490001F18041521CDB
:1034B00001F5C041521009E010F8013B10F8014B32
:1034C00043EA042321F8023B891C521EF4D110BDAB
:1034D000490001F18041521C01F5C041521004E045
:1034E00051F8043B20F8023B521EF9D1704700000E
:1034F00080B5FEF7F5FB644800680021817200F09A
:10350000D9F800F03FF900216048016001BD80B5A5
:103510005D48016800228A720168CA725C490068CD
:10352000C97941720020FFF7EDFE4FF400710020D1
:10353000FFF7EFFE10210020FFF7F5FE1821002015
:10354000FFF758FF58210020FFF753FF0020FFF737
:103550001EFF504890F82C100020FFF761FF00205C
:10356000FFF709FF4FF4C0610120FFF7D2FE4FF4CF
:1035700080710120FFF73DFF04210120FFF749FF83
:1035800000210120FFF7E0FE20210120FFF7CBFE04
:103590000020FFF777FE3D480121016001BD3E4854
:1035A000807A10B1394805210160704737480421FD
:1035B000016070477047704780B5334909680A78E1
:1035C000062811D102F07F00012804BF48790028A5
:1035D00014D18878222808BF0FF271020CD021285C
:1035E0000CD10FF2710207E002F07F02212A08BF1E
:1035F000032803D10FF27D02100001D1022002BD89
:103600008A61002048829047002002BD1E49096857
:10361000097801F07F01212903D10B2808BF00F0B0
:1036200021B8022070471D49FFF7CEBB1C49FFF7A8
:10363000CBBB15490968C978052901DB0020704713
:10364000184A02EBC101FFF7BFBB00001649FFF7A4
:10365000BBBB00001549FFF7B7BB00290CBF002812
:1036600002207047084812490068C07808600020AE
:103670007047000028B90448006801210182002039
:1036800070470B4870470000FC010020300200200A
:10369000EC39000800000020E001002014010020A7
:1036A0001C010020A0000020240100202C0100208B
:1036B0002C02002080B50120FEF708FB2E482F4A7F
:1036C000012101600021016041604FF4E05111804F
:1036D0000160002002BD2848016841F0080189B25C
:1036E0000160016841F0040189B20160FEF79BBAF4
:1036F00010B5214C20684FF6FB7108402060FEF7A2
:1037000098FA4FF43F40206010BD000010B51C4CEB
:10371000072818BF207021781748052929D8DFE825
:1037200001F00306090D141EFFF7E2FF21E0FFF789
:10373000DFFF08E00220607003201BE06078401E7D
:1037400060706078B8B9042014E0016841F010019D
:1037500089B20160052020700A20607010BD617878
:10376000491E6170617831B901684FF6EF721140FE
:1037700001600620207010BD405C0040380200202F
:10378000340200200448054A002141604FF43F41C3
:103790001180016000207047405C0040380200202A
:1037A0002DE9F84F0020ADF8000048F28004464DA6
:1037B000464EDFF81C91DFF81CA148F60F7840F662
:1037C0008F7B4BF6BF7725E056F82010ADF8001040
:1037D000BDF8001009040BD556F820100BEA0101C2
:1037E00046F820103C4901EB800050F8040C80475B
:1037F000BDF8000000060DD599F8000056F820101D
:1038000008EA010146F82010344901EB800050F825
:10381000040C8047706CAAF80000000452D5BAF876
:10382000000010F00F0089F80000CDD1306828802A
:10383000288800F030006880288800F440502880F4
:103840003068384080F4005080F020002043306021
:10385000BAF80000C006306805D408EA00003060FD
:10386000FFF772FC16E0ADF80000BDF8000000059F
:1038700006D530680BEA00003060FFF731FC09E044
:10388000BDF800000004C5D530680BEA00003060C8
:10389000FFF77FFC306829883840C90448BF80F4AE
:1038A00080502988890448BF80F400506988C9067F
:1038B00048BF80F010006988890648BF80F020006A
:1038C00020433060BDE8F18F24020020005C0040FE
:1038D0003C0200202A020020F8000020DC0000202A
:1038E0003648374A82B0016841F4700101603548BA
:1038F000016841F001010160416811404160324AB4
:10390000016811400160314A016821F480210160A1
:10391000416821F4FE014160C16A09090901C162DF
:10392000016B1140016300218160019100910168E8
:1039300041F4A0210160016801F400310091019976
:10394000491C0191009919B90199B1F5A06FF2D103
:103950000168490C01F0010100910099012926D16B
:103960001B4912220A604168416041684160416818
:1039700041F480614160416821F47C1141604168FB
:1039800041F4E8114160016841F080710160016813
:103990008901FCD54168890889004160416841F08E
:1039A00002014160416801F00C010829FAD14FF091
:1039B00000610848016002B07047000088ED00E037
:1039C0000CC07FF800100240FFFFF6FECCFC00FFA9
:1039D0000020024008ED00E012010002000000405B
:1039E00083041057000201020301000009022200B3
:1039F000010100E032090400000103010200092175
:103A000000010001224A0007058103040020000094
:103A100005010902A1010901A100050919012903F4
:103A20001500250195037501810295017505810138
:103A300005010930093109381581257F750895037D
:103A40008106C0093C05FF09011500250175019596
:103A500002B12275069501B101C0000004030904FA
:103A60002603530054004D006900630072006F008C
:103A700065006C0065006300740072006F006E00EA
:103A800069006300730000001E03530054004D00E2
:103A90003300320020004A006F0079007300740088
:103AA000690063006B00000070B5294D294C28683F
:103AB000294E6080608831880840000448BFFFF7C5
:103AC0006FFE608831880840400505D54FF6FF300D
:103AD0002860224840688047308861880140890416
:103AE00044BF4DF6FF71296061880840C00405D5C8
:103AF0004EF6FF7028600020FFF708FE60883188CE
:103B0000084000050BD51648007810B1FFF7E3FD1B
:103B100002E00220FFF7FAFD4FF2FF7028603088C4
:103B200061880140890505D54FF6FF51296021784C
:103B3000491C217061880840C00507D54FF6FF6019
:103B400028600720BDE87040FFF7E0BD70BD00BFF2
:103B5000445C0040280200203802002000000020C1
:103B60004D0100207047FEE7FEE7FEE7FEE77047E5
:103B70007047704780B5FDF780F817480168491E07
:103B8000016016480178491C017001BD38B500205C
:103B9000FEF7FCFC01281DD10020FDF7B8FAC8B1E2
:103BA0000F4C104D002000F021F80020FDF7AFFA77
:103BB0000028FAD100F01AF80B480168491C01608E
:103BC0000168032924BF00210160BDE832400020C4
:103BD000FEF7F0BC31BD000034010020520100208E
:103BE0001C020020FFFF0700B401002001E0206854
:103BF000401C20602068A842F9D37047FFF754BFEB
:103C000080B50020FFF782FDBDE802401220FEF7DC
:103C1000D1BC000010B5074979441831064C7C44EA
:103C2000163404E00A68081D511888470146A1426D
:103C3000F8D110BD0800000028000000AFD5FFFF3C
:103C4000F0000000500100200000000023D5FFFF1D
:103C500050010000C0010000000000200000000032
:103C60004EF68851CEF20001086840F470000860FA
:103C70004FF00070E1EE100A7047000000F00BF802
:103C8000002801D0FFF7C6FF0020C046C046FCF761
:103C90007BFA00F002F80120704700F001B8000044
:103CA0000746384600F002F8FBE7000080B5C04642
:103CB000C046024A11001820ABBEFBE726000200F6
:103CC0000148804701480047E1380008DD3C000812
:103CD00001480121017070474C010020C046C046D8
:103CE000FFF7BEFFFFF7CAFFFFF73CBFFFF73BBF81
:103CF000FFF73ABFFFF739BFFFF738BFFFF737BF0E
:103D0000FFF736BFFFF735BFFFF734BFFFF7FEBF42
:103D1000FFF7FEBFFFF7FEBFFFF7FEBFFFF7FEBFD7
:103D2000FFF7FEBFFFF732BFFFF7FEBFFFF7FEBF93
:103D3000FFF7FEBFFFF7FEBFFFF7FEBFFFF7FEBFB7
:103D4000FFF7FEBFFFF7FEBFFFF7FEBFFFF7FEBFA7
:103D5000FFF7FEBFFFF7FEBFFFF7FEBFFFF74EBF47
:103D6000FFF7FEBFFFF7FEBFFFF7FEBFFFF7FEBF87
:103D7000FFF7FEBFFFF7FEBFFFF7FEBFFFF7FEBF77
:103D8000FFF7FEBFFFF7FEBFFFF7FEBFFFF7FEBF67
:103D9000FFF7FEBFFFF7FEBFFFF7FEBFFFF7FEBF57
:103DA000FFF7FEBFFFF7FEBFFFF7FEBFFFF7FEBF47
:103DB000FFF7FEBFFFF724BFFFF7FEBFFFF7FEBF11
:103DC000FFF7FEBFFFF7FEBFFFF7FEBFFFF7FEBF27
:103DD000FFF7FEBFFFF7FEBFFFF7FEBFFFF7FEBF17
:103DE000FFF7FEBFFFF7FEBFFFF7FEBFFFF7FEBF07
:103DF000FFF7FEBFFFF7FEBFFFF7FEBFFFF7FEBFF7
:103E0000FFF7FEBFFFF7FEBFFFF7FEBFFFF7FEBFE6
:103E1000FFF7FEBFF13400080F350008B535000884
:103E2000B7350008B93500080D3600085B360008C4
:103E3000273600082D360008333600080000000041
:103E4000400000000000000001020304010203041E
:103E5000060708090000010002000400060008002F
:103E60000A000C001000200040008000000100004B
:103E7000013300089F3500080133000801330008B2
:103E80000133000801330008013300080133000842
:103E9000AD35000800100048001000480010004830
:103EA00000100048001000480010004800100048B2
:103EB000001000485C3A000804000000603A000866
:103EC00026000000883A00081E000000C000002004
:103ED0001A0000001A03530054004D003300320052
:103EE0003100300000000000000000000000000071
:103EF000D13C0008013300080133000801330008F9
:103F000001330008013300080133000801330008C1
:103F100001330008013300080133000801330008B1
:103F20000133000801330008D839000812000000EE
:103F3000EC39000822000000103A00084A00000096
:103F4000FE3900080900000064000000000000487D
:103F50000010000000A000000201000000000000AE
:043F6000010100005B
:0400000508003CDDD6
:00000001FF
